S00C0000537761702E737265637D
S3158002000027BDFFD8AFBF0024AFBE002003A0F021DA
S3158002001024020005AFC2001824020009AFC2001CE8
S315800200208FC300188FC20010AC4300008FC3001C20
S315800200308FC20014AC4300008FC400108FC5001419
S315800200400C008021000000008FC200108C4200004C
S31580020050AFC200188FC200148C420000AFC2001CCF
S315800200608FC300188FC2001C0062102103C0E821D2
S315800200708FBF00248FBE002027BD002803E0000822
S315800200800000000027BDFFF0AFBE000C03A0F021E8
S31580020090AFC40010AFC500148FC200108C4200009E
S315800200A0AFC200008FC200148C4300008FC20010C2
S315800200B0AC4300008FC200148FC30000AC43000023
S315800200C003C0E8218FBE000C27BD001003E00008A4
S309800200D000000000A4
S7058002000078
